40                  7813100655  04122122                    04302021291020213088888020005PSAUDARA MOTOR / DENNY STEFANUS         Jl. Raya Muhamad Kafi 2 No.29 Kel. Serengseng Sawah     SPAREPARTS           0000000000                        IDR000001000000
40                  5956985703  04122122                    04302021291020213088888020005PSAUDARA MOTOR / DENNY STEFANUS         Jl. Raya Muhamad Kafi 2 No.29 Kel. Serengseng Sawah     SPAREPARTS           0000000000                        IDR000002000000
40                  9771394231  04122122                    04302021291020213088888020005PSAUDARA MOTOR / DENNY STEFANUS         Jl. Raya Muhamad Kafi 2 No.29 Kel. Serengseng Sawah     SPAREPARTS           0000000000                        IDR000003000000
40                  2392862036  04122122                    04302021291020213088888020005PSAUDARA MOTOR / DENNY STEFANUS         Jl. Raya Muhamad Kafi 2 No.29 Kel. Serengseng Sawah     SPAREPARTS           0000000000                        IDR000004000000
40                  8341098510  04122122                    04302021291020213088888020005PSAUDARA MOTOR / DENNY STEFANUS         Jl. Raya Muhamad Kafi 2 No.29 Kel. Serengseng Sawah     SPAREPARTS           0000000000                        IDR000005000000
